{
  "contractName": "LinearVesting",
  "abi": [
    {
      "inputs": [
        {
          "internalType": "address",
          "name": "_token",
          "type": "address"
        },
        {
          "internalType": "uint256",
          "name": "_duration",
          "type": "uint256"
        },
        {
          "internalType": "uint256",
          "name": "_cliff",
          "type": "uint256"
        }
      ],
      "stateMutability": "nonpayable",
      "type": "constructor"
    },
    {
      "anonymous": false,
      "inputs": [
        {
          "indexed": true,
          "internalType": "address",
          "name": "previousOwner",
          "type": "address"
        },
        {
          "indexed": true,
          "internalType": "address",
          "name": "newOwner",
          "type": "address"
        }
      ],
      "name": "OwnershipTransferred",
      "type": "event"
    },
    {
      "inputs": [],
      "name": "cliff",
      "outputs": [
        {
          "internalType": "uint256",
          "name": "",
          "type": "uint256"
        }
      ],
      "stateMutability": "view",
      "type": "function"
    },
    {
      "inputs": [],
      "name": "duration",
      "outputs": [
        {
          "internalType": "uint256",
          "name": "",
          "type": "uint256"
        }
      ],
      "stateMutability": "view",
      "type": "function"
    },
    {
      "inputs": [],
      "name": "owner",
      "outputs": [
        {
          "internalType": "address",
          "name": "",
          "type": "address"
        }
      ],
      "stateMutability": "view",
      "type": "function"
    },
    {
      "inputs": [],
      "name": "renounceOwnership",
      "outputs": [],
      "stateMutability": "nonpayable",
      "type": "function"
    },
    {
      "inputs": [],
      "name": "start",
      "outputs": [
        {
          "internalType": "uint256",
          "name": "",
          "type": "uint256"
        }
      ],
      "stateMutability": "view",
      "type": "function"
    },
    {
      "inputs": [
        {
          "internalType": "address",
          "name": "newOwner",
          "type": "address"
        }
      ],
      "name": "transferOwnership",
      "outputs": [],
      "stateMutability": "nonpayable",
      "type": "function"
    },
    {
      "inputs": [
        {
          "internalType": "address",
          "name": "_from",
          "type": "address"
        },
        {
          "internalType": "address",
          "name": "_receiver",
          "type": "address"
        },
        {
          "internalType": "uint256",
          "name": "_amount",
          "type": "uint256"
        }
      ],
      "name": "lock",
      "outputs": [],
      "stateMutability": "nonpayable",
      "type": "function"
    },
    {
      "inputs": [],
      "name": "release",
      "outputs": [],
      "stateMutability": "nonpayable",
      "type": "function"
    }
  ],
  "bytecode": "0x608060405234801562000010575f80fd5b50604051620012013803806200120183398181016040528101906200003691906200029d565b620000566200004a6200013860201b60201c565b6200013f60201b60201c565b5f82116200009b576040517f08c379a0000000000000000000000000000000000000000000000000000000008152600401620000929062000354565b60405180910390fd5b80821015620000e1576040517f08c379a0000000000000000000000000000000000000000000000000000000008152600401620000d890620003e8565b60405180910390fd5b806003819055508260015f6101000a81548173ffffffffffffffffffffffffffffffffffffffff021916908373ffffffffffffffffffffffffffffffffffffffff1602179055508160048190555050505062000408565b5f33905090565b5f805f9054906101000a900473ffffffffffffffffffffffffffffffffffffffff169050815f806101000a81548173ffffffffffffffffffffffffffffffffffffffff021916908373ffffffffffffffffffffffffffffffffffffffff1602179055508173ffffffffffffffffffffffffffffffffffffffff168173ffffffffffffffffffffffffffffffffffffffff167f8be0079c531659141344cd1fd0a4f28419497f9722a3daafe3b4186f6b6457e060405160405180910390a35050565b5f80fd5b5f73ffffffffffffffffffffffffffffffffffffffff82169050919050565b5f6200022f8262000204565b9050919050565b620002418162000223565b81146200024c575f80fd5b50565b5f815190506200025f8162000236565b92915050565b5f819050919050565b620002798162000265565b811462000284575f80fd5b50565b5f8151905062000297816200026e565b92915050565b5f805f60608486031215620002b757620002b662000200565b5b5f620002c6868287016200024f565b9350506020620002d98682870162000287565b9250506040620002ec8682870162000287565b9150509250925092565b5f82825260208201905092915050565b7f4c6120647572656520646f6974206574726520706f73697469766500000000005f82015250565b5f6200033c601b83620002f6565b9150620003498262000306565b602082019050919050565b5f6020820190508181035f8301526200036d816200032e565b9050919050565b7f636c696666206e6520706575742065747265207375706572696575722061206c5f8201527f612064757265652064752076657374696e670000000000000000000000000000602082015250565b5f620003d0603283620002f6565b9150620003dd8262000374565b604082019050919050565b5f6020820190508181035f8301526200040181620003c2565b9050919050565b610deb80620004165f395ff3fe608060405234801561000f575f80fd5b5060043610610086575f3560e01c806386d1a69f1161005957806386d1a69f146100ec5780638da5cb5b146100f6578063be9a655514610114578063f2fde38b1461013257610086565b80630fb5a6b41461008a57806313d033c0146100a8578063715018a6146100c65780637750c9f0146100d0575b5f80fd5b61009261014e565b60405161009f9190610745565b60405180910390f35b6100b0610154565b6040516100bd9190610745565b60405180910390f35b6100ce61015a565b005b6100ea60048036038101906100e591906107e6565b61016d565b005b6100f46102f4565b005b6100fe610538565b60405161010b9190610845565b60405180910390f35b61011c61055f565b6040516101299190610745565b60405180910390f35b61014c6004803603810190610147919061085e565b610565565b005b60045481565b60035481565b6101626105e7565b61016b5f610665565b565b6101756105e7565b5f81116101b7576040517f08c379a00000000000000000000000000000000000000000000000000000000081526004016101ae90610909565b60405180910390fd5b5f600754146101fb576040517f08c379a00000000000000000000000000000000000000000000000000000000081526004016101f290610971565b60405180910390fd5b60015f9054906101000a900473ffffffffffffffffffffffffffffffffffffffff1673ffffffffffffffffffffffffffffffffffffffff166323b872dd8430846040518463ffffffff1660e01b81526004016102599392919061098f565b6020604051808303815f875af1158015610275573d5f803e3d5ffd5b505050506040513d601f19601f8201168201806040525081019061029991906109f9565b508160055f6101000a81548173ffffffffffffffffffffffffffffffffffffffff021916908373ffffffffffffffffffffffffffffffffffffffff160217905550806006819055504260028190555080600781905550505050565b600254421015610339576040517f08c379a000000000000000000000000000000000000000000000000000000000815260040161033090610a6e565b60405180910390fd5b6003546002546103499190610ab9565b42101561038b576040517f08c379a000000000000000000000000000000000000000000000000000000000815260040161038290610b5c565b60405180910390fd5b60055f9054906101000a900473ffffffffffffffffffffffffffffffffffffffff1673ffffffffffffffffffffffffffffffffffffffff163373ffffffffffffffffffffffffffffffffffffffff16148061041857506103e9610538565b73ffffffffffffffffffffffffffffffffffffffff163373ffffffffffffffffffffffffffffffffffffffff16145b610457576040517f08c379a000000000000000000000000000000000000000000000000000000000815260040161044e90610bea565b60405180910390fd5b5f600454426104669190610c35565b6002546104739190610c65565b905060015f9054906101000a900473ffffffffffffffffffffffffffffffffffffffff1673ffffffffffffffffffffffffffffffffffffffff1663a9059cbb60055f9054906101000a900473ffffffffffffffffffffffffffffffffffffffff166006546040518363ffffffff1660e01b81526004016104f4929190610c98565b6020604051808303815f875af1158015610510573d5f803e3d5ffd5b505050506040513d601f19601f8201168201806040525081019061053491906109f9565b5050565b5f805f9054906101000a900473ffffffffffffffffffffffffffffffffffffffff16905090565b60025481565b61056d6105e7565b5f73ffffffffffffffffffffffffffffffffffffffff168173ffffffffffffffffffffffffffffffffffffffff16036105db576040517f08c379a00000000000000000000000000000000000000000000000000000000081526004016105d290610d2f565b60405180910390fd5b6105e481610665565b50565b6105ef610726565b73ffffffffffffffffffffffffffffffffffffffff1661060d610538565b73ffffffffffffffffffffffffffffffffffffffff1614610663576040517f08c379a000000000000000000000000000000000000000000000000000000000815260040161065a90610d97565b60405180910390fd5b565b5f805f9054906101000a900473ffffffffffffffffffffffffffffffffffffffff169050815f806101000a81548173ffffffffffffffffffffffffffffffffffffffff021916908373ffffffffffffffffffffffffffffffffffffffff1602179055508173ffffffffffffffffffffffffffffffffffffffff168173ffffffffffffffffffffffffffffffffffffffff167f8be0079c531659141344cd1fd0a4f28419497f9722a3daafe3b4186f6b6457e060405160405180910390a35050565b5f33905090565b5f819050919050565b61073f8161072d565b82525050565b5f6020820190506107585f830184610736565b92915050565b5f80fd5b5f73ffffffffffffffffffffffffffffffffffffffff82169050919050565b5f61078b82610762565b9050919050565b61079b81610781565b81146107a5575f80fd5b50565b5f813590506107b681610792565b92915050565b6107c58161072d565b81146107cf575f80fd5b50565b5f813590506107e0816107bc565b92915050565b5f805f606084860312156107fd576107fc61075e565b5b5f61080a868287016107a8565b935050602061081b868287016107a8565b925050604061082c868287016107d2565b9150509250925092565b61083f81610781565b82525050565b5f6020820190506108585f830184610836565b92915050565b5f602082840312156108735761087261075e565b5b5f610880848285016107a8565b91505092915050565b5f82825260208201905092915050565b7f4c65206d6f6e74616e74206120766572726f75696c6c657220646f69742065745f8201527f726520706f736974696600000000000000000000000000000000000000000000602082015250565b5f6108f3602a83610889565b91506108fe82610899565b604082019050919050565b5f6020820190508181035f830152610920816108e7565b9050919050565b7f416c7265616479206c6f636b65640000000000000000000000000000000000005f82015250565b5f61095b600e83610889565b915061096682610927565b602082019050919050565b5f6020820190508181035f8301526109888161094f565b9050919050565b5f6060820190506109a25f830186610836565b6109af6020830185610836565b6109bc6040830184610736565b949350505050565b5f8115159050919050565b6109d8816109c4565b81146109e2575f80fd5b50565b5f815190506109f3816109cf565b92915050565b5f60208284031215610a0e57610a0d61075e565b5b5f610a1b848285016109e5565b91505092915050565b7f56657374696e67206e276573742070617320636f6d6d656e63650000000000005f82015250565b5f610a58601a83610889565b9150610a6382610a24565b602082019050919050565b5f6020820190508181035f830152610a8581610a4c565b9050919050565b7f4e487b71000000000000000000000000000000000000000000000000000000005f52601160045260245ffd5b5f610ac38261072d565b9150610ace8361072d565b9250828201905080821115610ae657610ae5610a8c565b5b92915050565b7f4176616e74206c6520636c696666207269656e206e65207065757420657472655f8201527f2072657469726500000000000000000000000000000000000000000000000000602082015250565b5f610b46602783610889565b9150610b5182610aec565b604082019050919050565b5f6020820190508181035f830152610b7381610b3a565b9050919050565b7f566f7573206e276574657320706173206175746f726973652061206c696265725f8201527f6572206c657320746f6b656e7300000000000000000000000000000000000000602082015250565b5f610bd4602d83610889565b9150610bdf82610b7a565b604082019050919050565b5f6020820190508181035f830152610c0181610bc8565b9050919050565b7f4e487b71000000000000000000000000000000000000000000000000000000005f52601260045260245ffd5b5f610c3f8261072d565b9150610c4a8361072d565b925082610c5a57610c59610c08565b5b828204905092915050565b5f610c6f8261072d565b9150610c7a8361072d565b9250828203905081811115610c9257610c91610a8c565b5b92915050565b5f604082019050610cab5f830185610836565b610cb86020830184610736565b9392505050565b7f4f776e61626c653a206e6577206f776e657220697320746865207a65726f20615f8201527f6464726573730000000000000000000000000000000000000000000000000000602082015250565b5f610d19602683610889565b9150610d2482610cbf565b604082019050919050565b5f6020820190508181035f830152610d4681610d0d565b9050919050565b7f4f776e61626c653a2063616c6c6572206973206e6f7420746865206f776e65725f82015250565b5f610d81602083610889565b9150610d8c82610d4d565b602082019050919050565b5f6020820190508181035f830152610dae81610d75565b905091905056fea2646970667358221220e57bb25012c2709d253d9245b644564eac5b8014321903a81c50910da57669c164736f6c63430008140033",
  "immutableReferences": {},
  "source": "// SPDX-License-Identifier: MIT\r\npragma solidity ^0.8.0;\r\n\r\nimport \"@openzeppelin/contracts/token/ERC20/IERC20.sol\";\r\nimport \"@openzeppelin/contracts/access/Ownable.sol\";\r\n\r\n/**\r\n * @title LinearVesting\r\n * @dev\r\n */\r\ncontract LinearVesting is Ownable {\r\n    IERC20 token;\r\n    uint256 public start; // quand le vesting commence\r\n    uint256 public cliff; // Priode en seconde\r\n    uint256 public duration; // dure du vesting\r\n    address receiver; // destinataire\r\n    uint256 amount; // nombre de tokkens envoys\r\n    uint256 totalAmount; // montant total des tokens bloqus dans le contract\r\n\r\n    //ajouter event\r\n\r\n    constructor(address _token, uint256 _duration, uint256 _cliff) {\r\n        require(_duration > 0, \"La duree doit etre positive\");\r\n        require(\r\n            _duration >= _cliff,\r\n            \"cliff ne peut etre superieur a la duree du vesting\"\r\n        );\r\n        cliff = _cliff;\r\n        token = IERC20(_token);\r\n        //on initialise pas start dans le constructeur pour s'assurer que la priode de vesting commence aprs que les tokens verouills\r\n        duration = _duration;\r\n    }\r\n\r\n    /**\r\n     * @dev imobiliser tokkens a periode determine\r\n     * @param _from description from\r\n     * @param _receiver description receiver\r\n     */\r\n    function lock(\r\n        address _from,\r\n        address _receiver,\r\n        uint256 _amount\r\n    ) public onlyOwner {\r\n        // Vrifier que le montant  verrouiller est positif\r\n        require(_amount > 0, \"Le montant a verrouiller doit etre positif\");\r\n\r\n        require(totalAmount == 0, \"Already locked\"); // peut etre verrouill qu'une seule fois\r\n\r\n        token.transferFrom(_from, address(this), _amount); //transfrer les tokens du propritaire original (_from) vers le contrat de vesting (address(this)).\r\n\r\n        receiver = _receiver;\r\n        amount = _amount;\r\n        start = block.timestamp;\r\n        totalAmount = _amount;\r\n    }\r\n\r\n    //Pas de paramtres\r\n    /**\r\n     * @dev libration linaire des tokens selon letemps fix\r\n     *\r\n     *\r\n     */\r\n    function release() external {\r\n        require(block.timestamp >= start, \"Vesting n'est pas commence\");\r\n        require(\r\n            block.timestamp >= start + cliff,\r\n            \"Avant le cliff rien ne peut etre retire\"\r\n        ); //le dlai de vesting a commenc.\r\n        require(\r\n            msg.sender == receiver || msg.sender == owner(),\r\n            \"Vous n'etes pas autorise a liberer les tokens\"\r\n        );\r\n        // calculer le pourcentage de temps depuis le debut du vesting\r\n        uint256 pourcentageTime = start - block.timestamp / duration;\r\n\r\n        //Calculer combien de tokens sont disponibles pour tre librs en fonction du temps coul depuis le dbut du vesting.\r\n\r\n        //Transfrer ces tokens au bnficiaire.\r\n\r\n        token.transfer(receiver, amount);\r\n    }\r\n}\r\n",
  "sourcePath": "H:\\Desktop\\Vesting\\contracts\\LinearVesting.sol",
  "compiler": {
    "name": "solc",
    "version": "0.8.20+commit.a1b79de6.Emscripten.clang"
  },
  "schemaVersion": "3.4.14",
  "updatedAt": "2023-06-18T15:59:28.796Z",
  "devdoc": {
    "kind": "dev",
    "methods": {
      "lock(address,address,uint256)": {
        "details": "imobiliser tokkens a periode determine",
        "params": {
          "_from": "description from",
          "_receiver": "description receiver"
        }
      },
      "owner()": {
        "details": "Returns the address of the current owner."
      },
      "release()": {
        "details": "libration linaire des tokens selon letemps fix"
      },
      "renounceOwnership()": {
        "details": "Leaves the contract without owner. It will not be possible to call `onlyOwner` functions. Can only be called by the current owner. NOTE: Renouncing ownership will leave the contract without an owner, thereby disabling any functionality that is only available to the owner."
      },
      "transferOwnership(address)": {
        "details": "Transfers ownership of the contract to a new account (`newOwner`). Can only be called by the current owner."
      }
    },
    "title": "LinearVesting",
    "version": 1
  },
  "userdoc": {
    "kind": "user",
    "methods": {},
    "version": 1
  }
}