{
  "contractName": "LinearVesting",
  "abi": [
    {
      "inputs": [
        {
          "internalType": "contract IERC20",
          "name": "_token",
          "type": "address"
        },
        {
          "internalType": "uint256",
          "name": "_start",
          "type": "uint256"
        },
        {
          "internalType": "uint256",
          "name": "_duration",
          "type": "uint256"
        }
      ],
      "stateMutability": "nonpayable",
      "type": "constructor"
    },
    {
      "anonymous": false,
      "inputs": [
        {
          "indexed": true,
          "internalType": "address",
          "name": "previousOwner",
          "type": "address"
        },
        {
          "indexed": true,
          "internalType": "address",
          "name": "newOwner",
          "type": "address"
        }
      ],
      "name": "OwnershipTransferred",
      "type": "event"
    },
    {
      "anonymous": false,
      "inputs": [
        {
          "indexed": false,
          "internalType": "address",
          "name": "beneficiary",
          "type": "address"
        },
        {
          "indexed": false,
          "internalType": "uint256",
          "name": "amount",
          "type": "uint256"
        }
      ],
      "name": "TokensReleased",
      "type": "event"
    },
    {
      "inputs": [
        {
          "internalType": "address",
          "name": "",
          "type": "address"
        }
      ],
      "name": "beneficiaries",
      "outputs": [
        {
          "internalType": "uint256",
          "name": "weight",
          "type": "uint256"
        },
        {
          "internalType": "uint256",
          "name": "released",
          "type": "uint256"
        }
      ],
      "stateMutability": "view",
      "type": "function"
    },
    {
      "inputs": [],
      "name": "duration",
      "outputs": [
        {
          "internalType": "uint256",
          "name": "",
          "type": "uint256"
        }
      ],
      "stateMutability": "view",
      "type": "function"
    },
    {
      "inputs": [],
      "name": "owner",
      "outputs": [
        {
          "internalType": "address",
          "name": "",
          "type": "address"
        }
      ],
      "stateMutability": "view",
      "type": "function"
    },
    {
      "inputs": [],
      "name": "renounceOwnership",
      "outputs": [],
      "stateMutability": "nonpayable",
      "type": "function"
    },
    {
      "inputs": [],
      "name": "start",
      "outputs": [
        {
          "internalType": "uint256",
          "name": "",
          "type": "uint256"
        }
      ],
      "stateMutability": "view",
      "type": "function"
    },
    {
      "inputs": [],
      "name": "token",
      "outputs": [
        {
          "internalType": "contract IERC20",
          "name": "",
          "type": "address"
        }
      ],
      "stateMutability": "view",
      "type": "function"
    },
    {
      "inputs": [
        {
          "internalType": "address",
          "name": "newOwner",
          "type": "address"
        }
      ],
      "name": "transferOwnership",
      "outputs": [],
      "stateMutability": "nonpayable",
      "type": "function"
    },
    {
      "inputs": [
        {
          "internalType": "address",
          "name": "_beneficiary",
          "type": "address"
        },
        {
          "internalType": "uint256",
          "name": "_weight",
          "type": "uint256"
        }
      ],
      "name": "addBeneficiary",
      "outputs": [],
      "stateMutability": "nonpayable",
      "type": "function"
    },
    {
      "inputs": [],
      "name": "release",
      "outputs": [],
      "stateMutability": "nonpayable",
      "type": "function"
    }
  ],
  "bytecode": "0x608060405234801562000010575f80fd5b506040516200131e3803806200131e833981810160405281019062000036919062000320565b620000566200004a620001a860201b60201c565b620001af60201b60201c565b5f73ffffffffffffffffffffffffffffffffffffffff168373ffffffffffffffffffffffffffffffffffffffff1603620000c7576040517f08c379a0000000000000000000000000000000000000000000000000000000008152600401620000be90620003d7565b60405180910390fd5b4282116200010c576040517f08c379a0000000000000000000000000000000000000000000000000000000008152600401620001039062000445565b60405180910390fd5b5f811162000151576040517f08c379a00000000000000000000000000000000000000000000000000000000081526004016200014890620004b3565b60405180910390fd5b8260015f6101000a81548173ffffffffffffffffffffffffffffffffffffffff021916908373ffffffffffffffffffffffffffffffffffffffff1602179055508160028190555080600381905550505050620004d3565b5f33905090565b5f805f9054906101000a900473ffffffffffffffffffffffffffffffffffffffff169050815f806101000a81548173ffffffffffffffffffffffffffffffffffffffff021916908373ffffffffffffffffffffffffffffffffffffffff1602179055508173ffffffffffffffffffffffffffffffffffffffff168173ffffffffffffffffffffffffffffffffffffffff167f8be0079c531659141344cd1fd0a4f28419497f9722a3daafe3b4186f6b6457e060405160405180910390a35050565b5f80fd5b5f73ffffffffffffffffffffffffffffffffffffffff82169050919050565b5f6200029f8262000274565b9050919050565b5f620002b28262000293565b9050919050565b620002c481620002a6565b8114620002cf575f80fd5b50565b5f81519050620002e281620002b9565b92915050565b5f819050919050565b620002fc81620002e8565b811462000307575f80fd5b50565b5f815190506200031a81620002f1565b92915050565b5f805f606084860312156200033a576200033962000270565b5b5f6200034986828701620002d2565b93505060206200035c868287016200030a565b92505060406200036f868287016200030a565b9150509250925092565b5f82825260208201905092915050565b7f546f6b656e20697320746865207a65726f2061646472657373000000000000005f82015250565b5f620003bf60198362000379565b9150620003cc8262000389565b602082019050919050565b5f6020820190508181035f830152620003f081620003b1565b9050919050565b7f5374617274206d75737420626520696e207468652066757475726500000000005f82015250565b5f6200042d601b8362000379565b91506200043a82620003f7565b602082019050919050565b5f6020820190508181035f8301526200045e816200041f565b9050919050565b7f4475726174696f6e206d75737420626520706f736974697665000000000000005f82015250565b5f6200049b60198362000379565b9150620004a88262000465565b602082019050919050565b5f6020820190508181035f830152620004cc816200048d565b9050919050565b610e3d80620004e15f395ff3fe608060405234801561000f575f80fd5b5060043610610091575f3560e01c80638da5cb5b116100645780638da5cb5b146100f857806396074e7014610116578063be9a655514610132578063f2fde38b14610150578063fc0c546a1461016c57610091565b806301567739146100955780630fb5a6b4146100c6578063715018a6146100e457806386d1a69f146100ee575b5f80fd5b6100af60048036038101906100aa91906107e3565b61018a565b6040516100bd929190610826565b60405180910390f35b6100ce6101aa565b6040516100db919061084d565b60405180910390f35b6100ec6101b0565b005b6100f66101c3565b005b61010061046b565b60405161010d9190610875565b60405180910390f35b610130600480360381019061012b91906108b8565b610492565b005b61013a610592565b604051610147919061084d565b60405180910390f35b61016a600480360381019061016591906107e3565b610598565b005b61017461061a565b6040516101819190610951565b60405180910390f35b6004602052805f5260405f205f91509050805f0154908060010154905082565b60035481565b6101b861063f565b6101c15f6106bd565b565b5f60045f3373ffffffffffffffffffffffffffffffffffffffff1673ffffffffffffffffffffffffffffffffffffffff1681526020019081526020015f2090505f815f015411610248576040517f08c379a000000000000000000000000000000000000000000000000000000000815260040161023f906109c4565b60405180910390fd5b5f60015f9054906101000a900473ffffffffffffffffffffffffffffffffffffffff1673ffffffffffffffffffffffffffffffffffffffff166370a08231306040518263ffffffff1660e01b81526004016102a39190610875565b602060405180830381865afa1580156102be573d5f803e3d5ffd5b505050506040513d601f19601f820116820180604052508101906102e291906109f6565b90505f600254426102f39190610a4e565b90505f60035483836103059190610a81565b61030f9190610aef565b90505f8460010154855f0154836103269190610a81565b6103309190610a4e565b90505f8111610374576040517f08c379a000000000000000000000000000000000000000000000000000000000815260040161036b90610b69565b60405180910390fd5b80856001015f8282546103879190610b87565b9250508190555060015f9054906101000a900473ffffffffffffffffffffffffffffffffffffffff1673ffffffffffffffffffffffffffffffffffffffff1663a9059cbb33836040518363ffffffff1660e01b81526004016103ea929190610bba565b6020604051808303815f875af1158015610406573d5f803e3d5ffd5b505050506040513d601f19601f8201168201806040525081019061042a9190610c16565b507fc7798891864187665ac6dd119286e44ec13f014527aeeb2b8eb3fd413df93179338260405161045c929190610bba565b60405180910390a15050505050565b5f805f9054906101000a900473ffffffffffffffffffffffffffffffffffffffff16905090565b61049a61063f565b5f73ffffffffffffffffffffffffffffffffffffffff168273ffffffffffffffffffffffffffffffffffffffff1603610508576040517f08c379a00000000000000000000000000000000000000000000000000000000081526004016104ff90610c8b565b60405180910390fd5b5f811161054a576040517f08c379a000000000000000000000000000000000000000000000000000000000815260040161054190610cf3565b60405180910390fd5b8060045f8473ffffffffffffffffffffffffffffffffffffffff1673ffffffffffffffffffffffffffffffffffffffff1681526020019081526020015f205f01819055505050565b60025481565b6105a061063f565b5f73ffffffffffffffffffffffffffffffffffffffff168173ffffffffffffffffffffffffffffffffffffffff160361060e576040517f08c379a000000000000000000000000000000000000000000000000000000000815260040161060590610d81565b60405180910390fd5b610617816106bd565b50565b60015f9054906101000a900473ffffffffffffffffffffffffffffffffffffffff1681565b61064761077e565b73ffffffffffffffffffffffffffffffffffffffff1661066561046b565b73ffffffffffffffffffffffffffffffffffffffff16146106bb576040517f08c379a00000000000000000000000000000000000000000000000000000000081526004016106b290610de9565b60405180910390fd5b565b5f805f9054906101000a900473ffffffffffffffffffffffffffffffffffffffff169050815f806101000a81548173ffffffffffffffffffffffffffffffffffffffff021916908373ffffffffffffffffffffffffffffffffffffffff1602179055508173ffffffffffffffffffffffffffffffffffffffff168173ffffffffffffffffffffffffffffffffffffffff167f8be0079c531659141344cd1fd0a4f28419497f9722a3daafe3b4186f6b6457e060405160405180910390a35050565b5f33905090565b5f80fd5b5f73ffffffffffffffffffffffffffffffffffffffff82169050919050565b5f6107b282610789565b9050919050565b6107c2816107a8565b81146107cc575f80fd5b50565b5f813590506107dd816107b9565b92915050565b5f602082840312156107f8576107f7610785565b5b5f610805848285016107cf565b91505092915050565b5f819050919050565b6108208161080e565b82525050565b5f6040820190506108395f830185610817565b6108466020830184610817565b9392505050565b5f6020820190506108605f830184610817565b92915050565b61086f816107a8565b82525050565b5f6020820190506108885f830184610866565b92915050565b6108978161080e565b81146108a1575f80fd5b50565b5f813590506108b28161088e565b92915050565b5f80604083850312156108ce576108cd610785565b5b5f6108db858286016107cf565b92505060206108ec858286016108a4565b9150509250929050565b5f819050919050565b5f61091961091461090f84610789565b6108f6565b610789565b9050919050565b5f61092a826108ff565b9050919050565b5f61093b82610920565b9050919050565b61094b81610931565b82525050565b5f6020820190506109645f830184610942565b92915050565b5f82825260208201905092915050565b7f596f7520617265206e6f7420612062656e6566696369617279000000000000005f82015250565b5f6109ae60198361096a565b91506109b98261097a565b602082019050919050565b5f6020820190508181035f8301526109db816109a2565b9050919050565b5f815190506109f08161088e565b92915050565b5f60208284031215610a0b57610a0a610785565b5b5f610a18848285016109e2565b91505092915050565b7f4e487b71000000000000000000000000000000000000000000000000000000005f52601160045260245ffd5b5f610a588261080e565b9150610a638361080e565b9250828203905081811115610a7b57610a7a610a21565b5b92915050565b5f610a8b8261080e565b9150610a968361080e565b9250828202610aa48161080e565b91508282048414831517610abb57610aba610a21565b5b5092915050565b7f4e487b71000000000000000000000000000000000000000000000000000000005f52601260045260245ffd5b5f610af98261080e565b9150610b048361080e565b925082610b1457610b13610ac2565b5b828204905092915050565b7f4e6f20746f6b656e73206172652064756520666f722072656c656173650000005f82015250565b5f610b53601d8361096a565b9150610b5e82610b1f565b602082019050919050565b5f6020820190508181035f830152610b8081610b47565b9050919050565b5f610b918261080e565b9150610b9c8361080e565b9250828201905080821115610bb457610bb3610a21565b5b92915050565b5f604082019050610bcd5f830185610866565b610bda6020830184610817565b9392505050565b5f8115159050919050565b610bf581610be1565b8114610bff575f80fd5b50565b5f81519050610c1081610bec565b92915050565b5f60208284031215610c2b57610c2a610785565b5b5f610c3884828501610c02565b91505092915050565b7f42656e656669636961727920697320746865207a65726f2061646472657373005f82015250565b5f610c75601f8361096a565b9150610c8082610c41565b602082019050919050565b5f6020820190508181035f830152610ca281610c69565b9050919050565b7f576569676874206d75737420626520706f7369746976650000000000000000005f82015250565b5f610cdd60178361096a565b9150610ce882610ca9565b602082019050919050565b5f6020820190508181035f830152610d0a81610cd1565b9050919050565b7f4f776e61626c653a206e6577206f776e657220697320746865207a65726f20615f8201527f6464726573730000000000000000000000000000000000000000000000000000602082015250565b5f610d6b60268361096a565b9150610d7682610d11565b604082019050919050565b5f6020820190508181035f830152610d9881610d5f565b9050919050565b7f4f776e61626c653a2063616c6c6572206973206e6f7420746865206f776e65725f82015250565b5f610dd360208361096a565b9150610dde82610d9f565b602082019050919050565b5f6020820190508181035f830152610e0081610dc7565b905091905056fea264697066735822122007ad1685a174c891d184226c40affe08003adaad1c42221aa359e8c144bb960664736f6c63430008140033",
  "immutableReferences": {},
  "source": "// SPDX-License-Identifier: MIT\r\npragma solidity ^0.8.0;\r\n\r\nimport \"@openzeppelin/contracts/token/ERC20/IERC20.sol\";\r\nimport \"@openzeppelin/contracts/access/Ownable.sol\";\r\n\r\ncontract LinearVesting is Ownable {\r\n    struct Beneficiary {\r\n        uint256 weight;\r\n        uint256 released;\r\n    }\r\n\r\n    IERC20 public token;\r\n    uint256 public start;\r\n    uint256 public duration;\r\n    mapping(address => Beneficiary) public beneficiaries;\r\n\r\n    event TokensReleased(address beneficiary, uint256 amount);\r\n\r\n    constructor(IERC20 _token, uint256 _start, uint256 _duration) {\r\n        require(address(_token) != address(0), \"Token is the zero address\");\r\n        require(_start > block.timestamp, \"Start must be in the future\");\r\n        require(_duration > 0, \"Duration must be positive\");\r\n\r\n        token = _token;\r\n        start = _start;\r\n        duration = _duration;\r\n    }\r\n\r\n    function addBeneficiary(\r\n        address _beneficiary,\r\n        uint256 _weight\r\n    ) public onlyOwner {\r\n        require(_beneficiary != address(0), \"Beneficiary is the zero address\");\r\n        require(_weight > 0, \"Weight must be positive\");\r\n\r\n        beneficiaries[_beneficiary].weight = _weight;\r\n    }\r\n\r\n    function release() public {\r\n        Beneficiary storage beneficiary = beneficiaries[msg.sender];\r\n        require(beneficiary.weight > 0, \"You are not a beneficiary\");\r\n\r\n        uint256 totalBalance = token.balanceOf(address(this));\r\n        uint256 timeElapsed = block.timestamp - start;\r\n        uint256 totalVested = (timeElapsed * totalBalance) / duration;\r\n        uint256 releasableAmount = (totalVested * beneficiary.weight) -\r\n            beneficiary.released;\r\n\r\n        require(releasableAmount > 0, \"No tokens are due for release\");\r\n\r\n        beneficiary.released += releasableAmount;\r\n        token.transfer(msg.sender, releasableAmount);\r\n\r\n        emit TokensReleased(msg.sender, releasableAmount);\r\n    }\r\n}\r\n",
  "sourcePath": "H:\\Desktop\\Vesting\\contracts\\LinearVesting.sol",
  "compiler": {
    "name": "solc",
    "version": "0.8.20+commit.a1b79de6.Emscripten.clang"
  },
  "schemaVersion": "3.4.14",
  "updatedAt": "2023-06-16T12:11:53.892Z",
  "devdoc": {
    "kind": "dev",
    "methods": {
      "owner()": {
        "details": "Returns the address of the current owner."
      },
      "renounceOwnership()": {
        "details": "Leaves the contract without owner. It will not be possible to call `onlyOwner` functions. Can only be called by the current owner. NOTE: Renouncing ownership will leave the contract without an owner, thereby disabling any functionality that is only available to the owner."
      },
      "transferOwnership(address)": {
        "details": "Transfers ownership of the contract to a new account (`newOwner`). Can only be called by the current owner."
      }
    },
    "version": 1
  },
  "userdoc": {
    "kind": "user",
    "methods": {},
    "version": 1
  }
}